:100000000C9489020C94A6020C94A6020C94A602ED
:100010000C94A6020C94A6020C94A6020C94A602C0
:100020000C94A6020C94A6020C940B2B0C94C72AD9
:100030000C94082C0C94A6020C94A6020C94A60214
:100040000C94A6020C94A6020C94A6020C94A60290
:100050000C94A6020C94E42B0C94A6020C94A60219
:100060000C94A6020C94A6020C94A6020C94A60270
:100070000C94A6020C94A6020C94A6020C94A60260
:100080000C94A6020C94A6020C94A6020C94A60250
:100090000C94A6020C94A6020C94A6020C94A60240
:1000A0000C94A6020C94A6020C94A6020501090267
:1000B000A10185020901A100050919012905150001
:1000C00025019505750181029501750381010501E1
:1000D000093009311581257F950275088106093897
:1000E0001581257F950175088106050C0A380215D2
:1000F00081257F950175088106C0C005010980A191
:1001000001850319012AB700150126B7009501756D
:10011000108100C0050C0901A101850419012AA064
:1001200002150126A002950175108100C005010984
:1001300006A1018506050719E029E71500250195A7
:1001400008750181020507190029EF1500250195A1
:10015000F0750181020508190129059505750191C0
:1001600002950175039101C00660FF0961A10109B3
:1001700062150026FF0095207508810209631500AD
:1001800026FF00952075089102C005010906A1010E
:10019000050719E029E71500250195087501810279
:1001A0009501750881010507190029FF150026FF33
:1001B0000095067508810005081901290595057542
:1001C000019102950175039101C00000000000003B
:1001D000000000000000000000000000000000001F
:1001E00000000000000000000000000000007E0F82
:1001F00000D4FFFFFFC700000078000000000000EF
:1002000000002A2B28000000000000000000000071
:10021000000000000029000000002C1E34202122D4
:1002200024342627252E362D3738271E1F2021223D
:10023000232425263333362E37381F0405060708B6
:10024000090A0B0C0D0E0F101112131415161718A6
:10025000191A1B1C1D2F3130232D350405060708E4
:10026000090A0B0C0D0E0F10111213141516171886
:10027000191A1B1C1D2F3130354CFD377A585A0086
:100280000004E6D6B4460200210116000000742FD7
:10029000E5A3E000FD009D5D003D8889C65436C39E
:1002A000174FE4D2CD4B7EE5A8C14E08F09198914E
:1002B000D9598C93292B9C55D1D639342C12322103
:1002C000E29D9884621FD5CF07AE5F66E40CFB8188
:1002D0001C561CF08797E1225C22BE942B150A92D3
:1002E000D913EADBB801DE0AE04F458A71BC88D732
:1002F000D60A76C25DF65748D892E20609E1F9E7D8
:1003000024DE875BCC95E580C5FB69A0F694BF3EF3
:10031000E2B52284CC6DC7E61DD3D4822A67AAEF4A
:100320005DD0657792F635E570560F0579A151B528
:1003300023429CD166C500000000AE62A8C0B8612F
:100340009DC40001B901FE01000073B48BA4B1C4C7
:1003500067FB020000000004595A04000500060073
:100360000700010001000100010027001E001F001E
:1003700020002100220023002400250001000100AC
:100380000100010001000100010001000100010065
:100390000100010001000100010001000100010055
:1003A0000100010001000100010001000100010045
:1003B0000100010001000100010001000100300402
:1003C0000000020002002C040000030001003104C0
:1003D0000000040002001604AE050500010032040E
:1003E00000000600020018040000070002002E04AE
:1003F00000000800010033040000090002001A0494
:1004000089050A0002001C0489050B0002001E0475
:1004100089050C000200200489050D000200220459
:1004200089050E000200240489050F00020026043D
:1004300089051000020028048905110002002A0421
:100440008905120002003404000013000200360483
:100450000000140001003804000009025B000301E1
:1004600000A0FA09040000010301010009211101A3
:100470000001224000070581030800010904010072
:1004800002030000000921110100012222000705DA
:100490008203200001070503032000010904020074
:1004A000010300000009211101000122BC00070521
:1004B000840320000112010002000000086373148D
:1004C000120100010203011C037600690061006C47
:1004D000003A0066003600340063003200620033E8
:1004E00000630000000A0332007800340065000059
:1004F000001A03530074007200650061006D002053
:1005000000430068006500610070000000040309FA
:10051000040011241FBECFEFDAE0DEBFCDBF11E033
:10052000A0E0B1E0E0EDF9E602C005900D92AE3733
:10053000B107D9F725E0AEE7B1E001C01D92A133C4
:10054000B207E1F70E942F2C0C94BB340C940000EE
:10055000E8EDF0E080818E7F80831092E2001092BF
:10056000DA001092E100A0EEB0E08C9181608C93F3
:1005700080818F77808319BCA7EDB0E08C918E7F4E
:100580008C9380818F7E80831092FF040895209148
:10059000E4003091E50095E6A9012091EC00822F5E
:1005A000817020FF06C08091E80080FF06C080E0D7
:1005B00008952091E80022FD1AC080912D0588231E
:1005C00089F0853089F08091EB0085FD0FC0209186
:1005D000E4003091E50042175307F9F29150E1F63B
:1005E00084E0089582E0089583E0089581E008950D
:1005F000EF92FF920F931F93CF937C018B010E9488
:10060000C702C82F811117C08091E80085FD0BC07B
:100610008091E8008E778093E8000E94C7028823CB
:1006200099F3C82F08C0F70181917F018093F100F1
:100630000150110949F78C2FCF911F910F91FF9015
:10064000EF900895CF93FC0180912D05843001F542
:10065000C091E900CF702091EC00922F917020FDA5
:1006600090E8C92B82E08093E9008091E80080FF48
:100670000CC050E040E060E270E0CF010E94F80260
:100680008091E8008E778093E800CF70C093E900F6
:10069000CF9108958091250587FF13C08091E800D0
:1006A00082FF06C08091E8008B778093E80004C049
:1006B00080912D058111F2CF089580912D05882319
:1006C000D9F38091E80080FFF8CF8091E8008E7721
:1006D000ECCF982F9093E900242F762F50E08917C4
:1006E00031F07091EC002091ED005091F00021FD6F
:1006F00007C09F5F973071F78093E90081E008950C
:100700003091EB003E7F3093EB003091ED003D7F68
:100710003093ED003091EB0031603093EB0070933B
:10072000EC002093ED005093F0002091EE0027FDA7
:10073000E0CF80E00895CF92DF92EF92FF920F9387
:100740001F93CF93DF93C8EDD0E088818F7E88839D
:10075000E7EDF0E080818160808384E082BF81E00A
:100760008093FF0488818E7F888302EE10E0F80179
:1007700010821092DA0081EEC82ED12CF601108280
:1007800088818F77888388818068888388818F7D3E
:10079000888319BC10922D05109224051092230510
:1007A0001092220590EEE92EF12CF70180818B7FCB
:1007B000808388818160888342E060E080E00E94DD
:1007C0006903F60180818E7F8083F80180818160DA
:1007D0008083808188608083F70180818E7F808321
:1007E000888180618883DF91CF911F910F91FF9065
:1007F000EF90DF90CF900895FC0180912B059091B0
:100800002C0586179707A0F06115710529F49091C2
:10081000E8009E779093E80090E06115710551F42F
:10082000911108C08091E80082FF34C080E00895F3
:10083000BC01F2CF80912D058823C1F18530C1F133
:100840008091E80083FD30C08091E80082FDEACF0E
:100850008091E80080FFE1CF8091F3002091F200C9
:10086000382F6115710519F02830310558F091E0E5
:100870002830310509F090E02091E8002E77209390
:10088000E800CBCF81918093F100615071092F5F17
:100890003F4FE7CF80912D05882341F0853041F00F
:1008A0008091E80083FFBECF81E0089582E0089543
:1008B00083E00895089580910105089587E797E7FB
:1008C000909301088093000888E19AE00FB6F894AD
:1008D000A895809360000FBE90936000FFCF9C01AD
:1008E0004FB7F8948091F6049091F704A091F80422
:1008F000B091F9044FBF821B930B08952FB7F89462
:100900006091F6047091F7048091F8049091F904D5
:100910002FBF08952FB7F8948091F6049091F704B3
:10092000A091F804B091F9042FBF08952091F30429
:100930003091F4042817390771F09093F4048093F0
:10094000F304E091F104F091F204309721F0008477
:10095000F185E02D099408952091EF043091F00481
:100960002817390771F09093F0048093EF04E09119
:10097000F104F091F204309721F00680F781E02D28
:1009800009940895E091F104F091F204309721F078
:100990000190F081E02D099480E00895CF93DF93DA
:1009A000EC0140910B0450910C0460910D04709186
:1009B0000E042FB7F8948091F6049091F704A0915B
:1009C000F804B091F9042FBF841B950BA60BB70B4D
:1009D000843F9140A105B10518F580910B049091D9
:1009E0000C04A0910D04B0910E0480930704909321
:1009F0000804A0930904B0930A0484EF91E0A0E0F6
:100A0000B0E08093030490930404A0930504B09392
:100A10000604D0931304C0931204DF91CF9108957C
:100A20000E947E0460930704709308048093090475
:100A300090930A0482E390E0A0E0B0E0E2CFFC01F2
:100A40008481862351F492819923B9F069238085AA
:100A500083FF05C081E061110FC080E00895892FF8
:100A60008F7092959F70982B862F8F7062956F7004
:100A7000682B81E09613F1CF089581E0FDCF452BDF
:100A800039F0682381E06F3F09F080E081700895BC
:100A900081E0FCCFDC016091FF0380910004962F80
:100AA000891301C00895292F30E0F901EE0FFF1FCF
:100AB000E950FC4F408151814A175B07A1F487E060
:100AC0008A9FA0018B9F500D112441545C4F81E0FF
:100AD000FA0184839613E6CF2F5F3F4F23703327AD
:100AE0002093FF0308952F5F3F4F922F9370D8CF2D
:100AF00010925C0310925B03EFEBF3E085818111B0
:100B000002C014821682379683E0E73FF807B1F7F8
:100B10000895E6E1F4E0848195812AE030E0B901AE
:100B20000E940634609316018681809315018285A8
:100B30008093140184858093130186859785B9017C
:100B40000E9406346093120180898093110182898A
:100B500080931001848980930F0108958091160479
:100B600090911704909318018093170108950E94A3
:100B70008A049C0190913F0280914002982B21F0C1
:100B800030933C0220933B029091410280914202BB
:100B9000982B21F030933A0220933902E091F1042E
:100BA000F091F204309749F082E080933D02048096
:100BB000F581E02D8DE392E00994089590913F0234
:100BC000803F59F48091400287FF0DC0109240028F
:100BD00091110BC01092370208C0813F81F48091BF
:100BE000400218169CF3992381F080914102909164
:100BF0004202892B09F064C0109236020895823FA8
:100C000049F497FFF0CF10923F028091400281118A
:100C1000ECCFE0CF833F19F41916ACF3E4CF209169
:100C20004102893F29F41216F4F610924102DBCFFB
:100C30008A3F19F427FFD7CFF8CF209142028B3F8C
:100C400029F427FFD0CF10924202CDCF8C3F19F468
:100C50001216CCF3C8CF843F31F480913E028E7FD0
:100C600080933E02C0CF853F21F480913E028D7F6C
:100C7000F7CF863F21F480913E028B7FF1CF873FF3
:100C800021F480913E02877FEBCF883F21F4809151
:100C90003E028F7EE5CF8D3F31F4809138028E7F0A
:100CA00080933802A0CF8E3F21F4809138028D7F4F
:100CB000F7CF8F3F09F097CF809138028B7FF0CF2D
:100CC00008958091380280FF0CC06091100170E09F
:100CD00075956795759567956115710549F1862F2D
:100CE000089581FF06C06091100170E075956795C9
:100CF000F3CF6091100182FD0BC0909136029923D1
:100D0000A1F060910F0180911001961738F0682FC3
:100D100070E06038710500F38FE70895899FC00186
:100D2000112470E00E941A34F4CF61E070E0D7CF54
:100D300081E008958091380260911E0470911F0433
:100D400080FF16C020911401269FC001279F900D9F
:100D50001124BC0176956795769567956038710585
:100D600008F043C06115710509F441C0862F08954C
:100D700081FF0BC020911401269FC001279F900D79
:100D80001124BC0176956795E9CF82FF09C0809157
:100D900014019B01829FB001839F700D1124DECF4F
:100DA000209137022223D1F29091130180911401F6
:100DB000482F50E0291748F0CB01849FB001859F50
:100DC000700D949F700D1124C9CF289F900111249C
:100DD000269FA001279F500D369F500D1124692F8B
:100DE00070E0CA010E940634B9CF8FE7089581E010
:100DF0000895803F31F40E949A06819580934002C5
:100E00000895813F19F40E949A06F8CF823F31F489
:100E10000E949A06819580933F020895833F19F4BA
:100E20000E949A06F8CF893F29F40E9461068093B8
:100E3000410208958A3F21F40E9461068195F7CF0F
:100E40008B3F31F40E9461068195809342020895A0
:100E50008C3F19F40E946106F8CF843F31F48091F1
:100E60003E02816080933E020895853F21F4809187
:100E70003E028260F7CF863F21F480913E0284607B
:100E8000F1CF873F21F480913E028860EBCF883F0D
:100E900021F480913E028061E5CF8D3F31F4809155
:100EA000380281608093380208958E3F21F480914A
:100EB00038028260F7CF8F3FB9F7809138028460A3
:100EC000F1CF80E008959091FA0492FF06C0282F98
:100ED00028712830F9F4877F846093FF06C0282F9B
:100EE00028712831F1F4877E84612091FB0420FF72
:100EF00006C0382F38713830D9F4877F816021FFE0
:100F000006C0282F28712831D1F4877E816194FD95
:100F1000877E0895282F24712430F9F68B7F88600E
:100F2000DCCF282F2471243101F78B7E8861DDCF3F
:100F3000382F3171313019F78E7F8860E0CF282F3C
:100F40002171213121F78E7E8861E1CFCF93DF932C
:100F5000EC0182389105A9F1D8F58133910509F4A6
:100F600096C048F58932910509F48AC08A9709F438
:100F700095C0C11521E5D20708F0BCC0C11530E508
:100F8000D30708F014C1C83ED10508F09CC0C03E8C
:100F9000D10560F5C83AD10508F087C0C53AD1053A
:100FA00008F0FDC0C130D10509F12097F9F0C43037
:100FB000D105E0F440C08533910509F45AC0C997C2
:100FC000C1F68091FA04837089F0C0EED0E00EC0C3
:100FD000833E910599F170F4803E910501F1823EC6
:100FE000910539F68091FA0482FD21C0CE01DF918E
:100FF000CF910895863E910561F1873E910571F18B
:10100000843E910509F0B5CF8091FB0481FFEECFBE
:101010008091FA04C7EED0E084FD0DC0E7CF809147
:10102000FA0480FD12C19091FB0490FFDFCFC3EE64
:10103000D0E084FFDBCFD0E0C0E0D8CF8091FA04CD
:1010400082FD06C19091FB0490FDBFCF84FFCECFFF
:10105000F2CF8091FA0483FDDDCFC8CF8091FA04EE
:1010600083FDF9C09091FB0491FFF0CFC4EED0E076
:10107000BDCF8091FA0485FFB9CFC9E2D0E0B6CFE9
:101080008091FA0485FFB2CFC5E3D0E0AFCF809165
:10109000FA0486FFABCFCAE2D0E0A8CF8091FA0471
:1010A00086FFA4CFC1E3D0E0A1CFCF3BD10518F696
:1010B000C85AD0E0CC0FDD1FC95DDE4F0990D88142
:1010C000C02DD46493CFC11540E2D40758F4C115A4
:1010D00081E0D80708F08ACFC03FD10508F4ABCF34
:1010E000D06584CFC11590E4D90708F4A4CFDF7090
:1010F000D06A7CCFC11525E5D20700F5C11534E5CE
:10110000D30708F08AC0C11543E5D40708F071C0C1
:10111000C11582E5D80708F467C0CE01837099270E
:1011200021E030E002C0220F331F8A95E2F7C69516
:10113000C69580E2C89FE001112452C0C11599E50F
:10114000D907A8F4C11528E5D20708F06BC0C1156E
:1011500036E5D30708F06FCF8C2F0E946307C82FA6
:10116000D0E0DC2FCC27CC27DF71D0623FCFC11578
:101170004AE5D40708F45BC0CE0190568115904231
:1011800008F059CF8D2F8F710E94630790E0982F40
:10119000882788279F719C012C2BE901E6CFC55A2F
:1011A000D0E0CC5DDE4FC881D0E0D0641FCFCE014F
:1011B000E4E096958795EA95E1F783702C2F2695C4
:1011C0002695237040E2249F90011124382B8C2F08
:1011D0008370C1E0D0E002C0CC0FDD1F8A95E2F73A
:1011E000C22BD32BDC6802CFDC2FCC27C16FD06A97
:1011F000FDCECE018370992721E030E002C0220F9E
:10120000331F8A95E2F7C695C69590E2C99FE00123
:101210001124C22BD32BDA68E9CEDC2FCC27C46F84
:10122000D06AE4CEDC2FCC27C06FD06ADFCE8C2F03
:101230008F700E94630734E0D695C7953A95E1F721
:10124000CF709C2FEC01D069D1CEC9E3D0E0CECED7
:10125000C2EED0E0CBCEC6EED0E0C8CE80911B026D
:10126000882331F010921B0210921A021092190278
:101270000895CF93C82F8091FB0482FD0CC080910C
:101280001B028C1741F00E948A0490931A028093EB
:101290001902C0931B02CF9108958095909130055B
:1012A0009823909330050895809590913603982364
:1012B00090933603089590913603892B80933603DB
:1012C00008951092F8011092F7011092F601089516
:1012D0008091180490911904892B89F00E948A0446
:1012E0002091190230911A02AC01421B530B81E08C
:1012F00020911804309119044217530708F480E034
:10130000817008958091F50181111092F501089581
:1013100090911B019923D1F09091FA0497FF16C088
:10132000E82FE695E695E695EE31E0F4F0E0E0583A
:10133000FE4F282F277081E090E001C0880F2A958A
:10134000EAF780959281892382830895E2E8F1E0AB
:101350009191891303C0DF0111971C9291E0E83845
:10136000F907B1F7089590911B019923C1F090916D
:10137000FA0497FF14C0E82FE695E695E695EE315E
:10138000F8F4F0E0E058FE4F877021E030E001C053
:10139000220F8A95EAF78281822B82830895A2E840
:1013A000B1E0EFEF90E02D91821751F0EF3F19F48B
:1013B000211101C0E92F9F5F9630A9F7EF3F09F493
:1013C00008950E2E000CFF0BE058FE4FE6CF209143
:1013D000F4019091B301291302C080E0089530E038
:1013E000F90153E0EE0FFF1F5A95E1F7EC54FE4F61
:1013F0005181561306C05081581303C052815413B3
:1014000004C02F5F3F4F2770E6CF81E008958091A1
:10141000F4019091B301981301C008958F5F877014
:10142000FACF9E3F51F1292F220F220FE22FE90F11
:10143000E80F9E2F9770E695E695E69583E0E89F86
:10144000F0011124EB55FE4F50E040E080E0219187
:1014500030E0092E02C0369527950A94E2F72170F4
:101460003327042E01C0220F0A94EAF7822B4F5F24
:101470005F4F4330510559F7089580E008959E3F2E
:1014800071F1292F220F220FE22FE90FE80F8E2F83
:10149000877041E001C0440F8A95EAF7E695E6952A
:1014A000E69583E0E89FF0011124EB55FE4F30E014
:1014B00020E070E05191DF011197CB01022E02C0B4
:1014C000969587950A94E2F7817081958527842304
:1014D00085278C932F5F3F4F2330310559F70895AF
:1014E00092959F70963091F058F4925F9F70923071
:1014F00058F4803F19F030F4883E30F481E00895CC
:101500009A5FF4CF843FD1F380E00895883EB0F332
:10151000813FD1F7F3CF9C013A9521153F4150F51A
:10152000FC01EE27F170BC0166277270AC01442704
:1015300054709C012227387094FF0EC080E1EF2B7D
:1015400009F480E0672B09F08062452B09F0806484
:10155000232B89F08068089581E0EF2B09F480E067
:10156000672B09F08260452B09F08460232B19F06A
:101570008860089580E008958093FC047093FE04D1
:101580006093FD0480912D058430F9F48093E90087
:101590008FEF9091E800815095FD06C095ED9A95EA
:1015A000F1F700008111F5CF8091E80085FF0DC0B3
:1015B00050E040E063E070E08CEF94E00E94F802BD
:1015C0008091E8008E778093E8000895BC0184E064
:1015D0000C94BC0ABC0183E00C94BC0A9C0184E01E
:1015E0008093E9009FEF8091E800915085FD06C04F
:1015F00085ED8A95F1F700009111F5CF8091E80013
:1016000085FF0CC050E040E066E070E0C9010E9438
:10161000F8028091E8008E778093E8000895CF93D8
:10162000DF93EC0180911B018823B1F18091FA04D2
:1016300087FF32C060E284E08093E9008FEF9091F1
:10164000E800815095FD06C095ED9A95F1F70000F0
:101650008111F5CF8091E80085FF1BC080911B01AF
:1016600070E050E040E0811104C050E040E068E0EC
:1016700070E0CE010E94F8028091E8008E7780939E
:10168000E80080E2FE01A2E0B5E001900D928A95AB
:10169000E1F7DF91CF91089568E081E0CDCF019728
:1016A00008F40895EFE9FFE03197F1F700C000007A
:1016B000F6CF0F931F93CF93DF9306E114E0C7E8B3
:1016C000D0E0CE010E947134F80181938F01219600
:1016D000CB3AD105B1F7C0ECD3E0FE0185919491EE
:1016E000009711F0FC0109952896F4E0C036DF0759
:1016F000A1F7DF91CF911F910F9108950F931F9341
:10170000CF93DF93843000F561111EC024E0829FE7
:101710008001112450E0440F551F040F151F095874
:101720001F4FC8010E947134C82FD0E0DC2FCC2796
:10173000C80101960E9471349E01282BC901DF91D6
:10174000CF911F910F91089590E080E0F8CF0F9313
:101750001F93CF93DF93843030F5623020F545300E
:1017600010F5C42FD0E0CC0FDD1F2AE0629FC00D22
:10177000D11D112434E1839FC00DD11D1124CE0150
:1017800087960E947134082F10E0102F0027CE0199
:1017900088960E9471349801282BC901DF91CF915E
:1017A0001F910F91089590E080E0F8CF462F20918F
:1017B000340330913503232B91F47E3F39F46E3F8F
:1017C00071F480913203909133030895843038F49A
:1017D000723028F4653018F4672F0C94A70B90E052
:1017E00080E00895CF92DF92FF920F931F93CF93E3
:1017F000DF936C0100912F0580912E05082BC7E027
:10180000D0E010E0FC2EC8010C2E02C09595879503
:101810000A94E2F780FD0CC02197A0F7F12C8F2DE0
:10182000DF91CF911F910F91FF90DF90CF9008959E
:10183000B6018C2F0E94D60B0E94A607019761F378
:10184000EECFCF93DF93EC010E94F20BBE010E941A
:10185000D60BDF91CF910C94A607FC01868197816E
:10186000009721F00E94A6070C94700A8081918154
:101870000E94210CF9CF1F93CF93DF9300D000D0AB
:101880000F92CDB7DEB749835A8389819A81662347
:10189000B9F02223A9F00E94F20B182F682F89813A
:1018A0009A810E943F0A69817A81812F0F900F905F
:1018B0000F900F900F90DF91CF911F910C94D60B4A
:1018C0000E94110A182FEFCFFC01262F86819781E5
:1018D000009739F4408151816281738184810C9435
:1018E0003B0C089583E290E00E9471348E3F89F4AE
:1018F00084E290E00E947134833659F485E290E0EE
:101900000E94713491E0813B09F090E0892F817051
:10191000089580E0FCCFCF9384E090E00E94713482
:10192000C82F82E290E00E947134982F8C2FCF91C3
:1019300008950F931F93CF93DF9306E114E0C7E858
:10194000D0E0CE010E947134F80161918F016817D7
:1019500019F0CE010E947F342196CB3AD10589F748
:10196000DF91CF911F910F910895E6E1F4E0128E7F
:10197000138E8FEA90E09183808325E0248F88E89E
:1019800093E1938382838AE090E09583848344E1AA
:1019900050E05783468368E070E0718760879387E3
:1019A00082874EE150E0558744879787868740E5D8
:1019B00050E0518B408B738B628B68E270E0758BCB
:1019C000648B62E370E0778B668B68EC70E0718FFC
:1019D000608F158E978F868F51A340A322A30E94FC
:1019E000990C0C94590BCF93DF93CBE9D1E060E0D5
:1019F000CE010E947F342196C11584E0D807B9F743
:101A0000DF91CF9108950F931F93CF93DF938901B7
:101A1000843028F5611123C0423008F521153C457A
:101A200031F42091300330913103232BC1F094E045
:101A3000899FE001112450E0440F551FC40FD51FAA
:101A4000C958DF4F612FCE010E947F34602FCE0135
:101A50000196DF91CF911F910F910C947F34DF910C
:101A6000CF911F910F9108950F931F93CF93DF9301
:101A70008901843048F5623038F5453028F5211564
:101A80003C4531F42091300330913103232BE1F0B8
:101A9000C42FD0E0CC0FDD1F9AE0699FC00DD11D8F
:101AA000112494E1899FC00DD11D1124612FCE0115
:101AB00087960E947F34602FCE018896DF91CF9168
:101AC0001F910F910C947F34DF91CF911F910F9153
:101AD0000895CF93C82F6FEF81116EEF83E290E0EE
:101AE0000E947F346FEFC11163E684E290E00E94B0
:101AF0007F346FEFC11161EB85E290E0CF910C94E0
:101B00007F348F929F92AF92BF92CF92DF92EF92EB
:101B1000FF920F931F93CF93DF93CDB7DEB76E97EE
:101B20000FB6F894DEBF0FBECDBFC0903003D0908B
:101B3000310381E090E090933103809330038AE594
:101B4000E82E83E0F82E9AE6A92E93E0B92E10E055
:101B5000450100E0F40125913491402F60E0812F90
:101B60000E94340DF2E08F0E911C0F5F053091F74B
:101B700045018AE0880E911C00E0F4012591349122
:101B8000402F61E0812F0E94340DE2E08E0E911C07
:101B90000F5F053091F7F7012591349140E060E047
:101BA000812F0E94030DF70132962591349141E077
:101BB00060E0812F0E94030D84E0E80EF11C1F5F9E
:101BC000E4E1AE0EB11C143009F0C2CF0E94B50C96
:101BD0001A8219821C821B821E821D8218861F8215
:101BE00088EC90E09A8789870BEA10E04AE050E0A1
:101BF000B801CE0101960E94A334065F1F4F0B3F30
:101C00001105A1F77E01FBE0EF0EF11C8AE0F70160
:101C100011928A95E9F74AE050E0B801C7010E94A5
:101C2000A334065F1F4F0B34F1E01F07A1F77E01BD
:101C300085E1E80EF11C8AE0F70111928A95E9F737
:101C40008FEF9FEF9A8F898F87E08E8F4AE050E069
:101C5000B801C7010E94A334065F1F4F0B39F1E0A2
:101C60001F07A1F7D0923103C09230036E960FB6D2
:101C7000F894DEBF0FBECDBFDF91CF911F910F91C2
:101C8000FF90EF90DF90CF90BF90AF909F908F909C
:101C9000089580E00E94690D60E086E290E00E9475
:101CA0007F340E94810D0E94F30C81E00C94690D39
:101CB0009B01883070F49AE0899FB001112465552A
:101CC0007F4F4AE050E0C9010E94613490E080E01B
:101CD00008958FEF9FEF08958F929F92AF92BF92DA
:101CE000CF92DF92EF92FF920F931F93CF93DF93E8
:101CF000CDB7DEB72A970FB6F894DEBF0FBECDBFC3
:101D00000FE314E0F12CE12C81E2C82E8AE2D82EF8
:101D10009BE4A92E9AE2B92E29E3822E29E2922E83
:101D2000F801D182C082B382A28295828482F58A30
:101D3000E48ABE016F5F7F4F8E2D0E94580E892B63
:101D400029F489859A85F801938B828BFFEFEF1A2E
:101D5000FF0A0A5E1F4F88E0E816F10409F72A9689
:101D60000FB6F894DEBF0FBECDBFDF91CF911F91AC
:101D70000F91FF90EF90DF90CF90BF90AF909F902A
:101D80008F9008958F929F92AF92BF92CF92DF92E1
:101D9000EF92FF920F931F93CF93DF93CDB7DEB7F0
:101DA0002A970FB6F894DEBF0FBECDBF08EB12E046
:101DB00086EAC82E82E0D82E9BE4E92EFF24F39415
:101DC00027E0922E35EAA32E32E0B32E88248394A6
:101DD000D6010D931D936D014AE050E0B701CE018D
:101DE00001960E946134F8013896DF01892D1D9219
:101DF0008A95E9F789819A81D80111969C938E93EF
:101E00008F8112968C9312978D8113968C931397D2
:101E1000888514968C931497898515968C931597BD
:101E20008B819C8117969C938E93169718961C9283
:101E300018978A8587FF4BC01E961C921E921D978D
:101E400080FF03C0D80118968C9281FF04C0F8016E
:101E500090859260908782FF07C0D80118969C9168
:101E60001897946018969C9383FF04C0F80190859E
:101E70009860908784FF07C0D80118969C911897A6
:101E8000906118969C9385FF04C0F801808580625C
:101E90008087015F1F4FFAE0EF0EF11C8BE9E81617
:101EA00081E0F80609F094CF2A960FB6F894DEBFC9
:101EB0000FBECDBFDF91CF911F910F91FF90EF909B
:101EC000DF90CF90BF90AF909F908F900895F801D2
:101ED000B686A586B5CFCF92DF92EF92FF920F9391
:101EE0001F93CF93DF93CDB7DEB72A970FB6F89441
:101EF000DEBF0FBECDBFE5E5F2E080E5DF011D925C
:101F00008A95E9F7EFEBF3E088E3DF011D928A950C
:101F1000E9F785E5C82E82E0D82E7F010BEF10E0AF
:101F2000F701D182C0824AE050E0B801CE010196AB
:101F30000E94613488E0FE013196D60101900D9235
:101F40008A95E1F789859A85D70113969C938E939C
:101F50001297BAE0CB0ED11CE7E0EE0EF11C065F43
:101F60001F4F0B34F1E01F07D9F62A960FB6F894ED
:101F7000DEBF0FBECDBFDF91CF911F910F91FF90BC
:101F8000EF90DF90CF9008951F93CF93DF9300D011
:101F9000CDB7DEB76AE571E0E5E5F1E041E030E0BC
:101FA00021912F3F09F046C0440F6E177F07C1F7FC
:101FB0003983EAE5F1E06FE571E041E030E021913D
:101FC0002F3F09F04BC0440F6E177F07C1F73A83CC
:101FD00042E050E0BE016F5F7F4F8FE192E00E94D0
:101FE000443411E0009709F410E0892B09F44AC049
:101FF00089819A819093200280931F0281E08093CF
:102000001E020E948A0490931D0280931C028091FC
:102010001C0290911D020E946F040597B8F18091F7
:102020001F02809334028091200280933502109227
:102030001E022CC0A22FA295AF70B0E090968C919A
:1020400090E02F7002C0959587952A95E2F780FD64
:1020500003C0842F382BA8CF80E0FCCFA22FA295FD
:10206000AF70B0E090968C9190E02F7002C0959583
:1020700087952A95E2F780FD03C0842F382BA3CFE4
:1020800080E0FCCF80911E028111C1CF812F0F9083
:102090000F90DF91CF911F910895CF9380913603D8
:1020A00090913005892B8093800180911B028823B9
:1020B00029F18091180490911904892B29F00E942C
:1020C000680981110E942E098091800190911B0264
:1020D000892B8093800180911B01882309F446C0DD
:1020E0008091FA0487FF42C08EE1E2E8F1E090E0DF
:1020F000815008F03DC091110E942E09C0910F043B
:10210000C09580918001C82380911004C82BC09392
:10211000800140E250E069EF71E080E891E00E94C8
:102120004434892B59F180E2E0E8F1E0A9EFB1E015
:1021300001900D928A95E1F7E091F104F091F2049B
:102140003097E1F080911B01882349F08091FA04D7
:1021500087FF05C0C093810186E0809380010280E3
:10216000F381E02D80E891E0CF91099486E0BDCF26
:102170002191222309F4BCCF9F5FBACFCF9108955C
:10218000EF92FF920F931F93CF93DF93EC018A8519
:10219000811134C0EB80FC8087E5F81A26E12E9D82
:1021A000C0012F9D900D1124DC01A15CBB4F149642
:1021B000ED91FC911597309731F054966D917C918B
:1021C0008B5B9B4F099586E18E9D80018F9D100D45
:1021D0001124015C1B4FF80187810E945409F8010A
:1021E00080850E944D090E944D10188219861B8619
:1021F0001E821D8210923E0410923D04DF91CF9109
:102200001F910F91FF90EF900895CF93DF93EC0112
:102210008989811118C081E0898B8F810E945B09B7
:10222000809130059885892B809330050E944D1050
:10223000EA81FB81309739F06C897D89CE01069661
:10224000DF91CF910994DF91CF9108958091190189
:10225000877F8093190182E00E944D0980911901C6
:1022600084FF06C08F7E8093190182E00E945B0983
:102270008091190185FF06C08F7D8093190180E24E
:102280000E945B090C944D1090E080E00E94AC0429
:1022900090E080E00E949604109230050E944D105C
:1022A00086E0EDE3F2E0DF011D928A95E9F71092F6
:1022B000370210923602109238020C94B7058093C0
:1022C0002F050C94441180912F05982F967096300D
:1022D00019F488600C945F11877FFCCF21E030E017
:1022E00001C0220F8A95EAF7209580912F0582235D
:1022F0000C945F119091F801809589238093F801E7
:10230000282F277091F4282F082E000C330B9217DA
:10231000130659F09091FB0492FD07C085958595B1
:1023200085950E946E110C9461090895CF93C09118
:10233000FB04C2FB992790F9981799F080FBC2F92A
:10234000C093FB046091FA0484E090E00E947F3423
:102350006C2F82E290E00E947F3482E0CF910C9457
:102360007A11CF91089521E030E001C0220F8A95C3
:10237000EAF780912F05822B0C945F119091FB045A
:1023800092FD10C098E0899F90011124622B609308
:10239000F8010E94B3110E948A049093F701809380
:1023A000F60108950C94B31180932E050C944411FA
:1023B0001092360380911B01E2E8F1E0882359F086
:1023C0008091FA0487FF07C08EE1DF011D928A9594
:1023D000E9F70C94441186E0F8CF1F93CF93DF9375
:1023E000CDB7DEB7AA970FB6F894DEBF0FBECDBF4C
:1023F00085E295E02091F100DC012D93CD01B5E05F
:102400008D329B07B9F780912605833009F472C09D
:10241000B8F4813009F449C0823009F4B3C0809126
:10242000E80083FF96C280912505909126059A3099
:1024300008F08FC2E92FF0E0E354FB4C0C942E34EB
:102440008A3009F48EC08B3009F471C0893039F7B5
:1024500080912505813219F78091290590912A05EF
:10246000009711F00297D9F68091E800877F80935A
:10247000E8008091E80082FF38C09091F3008091DD
:10248000F200029731F48091F100813011F0863032
:1024900021F48091F100809301058091E8008B7711
:1024A0008093E8000E944A03BACF80912505813AC3
:1024B00009F0B5CF8091E800877F8093E800809194
:1024C000290590912A05892B61F460E282E095E06C
:1024D00070E00E94FC038091E8008B778093E80015
:1024E0009ECF60E090E080E0F3CF80912D058111D8
:1024F000C0CF95CF80912505813A09F090CF80918A
:10250000290590912A05892B09F089CF8091E8004F
:10251000877F8093E8008091E80080FFFCCF809166
:102520001B018093F1008091E8008E77B9CF8091F4
:102530002505813209F073CF8091290590912A05F4
:10254000892B09F06CCF8091E800877F8093E800A9
:102550000E944A038091270580931B010E94D81195
:102560005ECF80912505813209F059CF8091E80036
:10257000877F8093E8000E944A038091280580931A
:1025800000054DCF80912505813A09F048CF809113
:10259000E800877F8093E8008091E80080FFFCCF0F
:1025A00080910005BECF803899F0823809F0D1C102
:1025B000809129058F70873008F0CBC18093E900A6
:1025C0008091EB0085FB882780F91092E90006C016
:1025D0008091220590912305911182609091E800ED
:1025E000977F9093E8008093F1001092F100809122
:1025F000E8008E77AAC1882309F498C1823009F0D7
:10260000A8C18091270581119BC1809129058F70F8
:102610002FEF280F263008F09CC18093E90020910D
:10262000EB0020FF8DC1933031F48091EB0080628C
:102630008093EB0085C19091EB0090619093EB004B
:1026400021E030E001C0220F8A95EAF72093EA00EA
:102650001092EA008091EB008860EACF811179C185
:10266000109127051F778091E3008078812B80935C
:10267000E3008091E800877F8093E8000E944A038E
:102680008091E80080FFFCCF8091E3008068809318
:10269000E30082E0111183E080932D055AC1805838
:1026A000823008F056C120912705309128052C3D35
:1026B000E3E03E07A1F583E08A838AE289834FB78E
:1026C000F894DE01139620E03EE051E2E32FF0E0C3
:1026D00050935700E49120FF03C0E295EF703F5FF5
:1026E000EF708E2F90E0EA30C0F0C7968D939D93E7
:1026F0002F5F243159F74FBF8091E800877F809387
:10270000E8006AE270E0CE0101960E94FC0380912D
:10271000E8008B778093E8001CC1C096E7CF8091DA
:10272000290590912A05432F55274330510509F477
:102730004AC078F54130510509F485C08BE590E039
:10274000EAE5F4E04230510509F003C12091E800C8
:10275000277F2093E80020912B0530912C058217CC
:10276000930708F49C0140E02115310509F070C081
:1027700041116EC08091E80082FDC9CF80912D0586
:10278000882329F2853019F28091E80083FFF2CF87
:10279000BECF4132510509F447C04232510509F01C
:1027A000D8C08330910508F0D4C0FC01EE0FFF1FA4
:1027B000EE58FE4F0190F081E02D81599E4FDC01D3
:1027C0008C9190E01DC0332721303105E9F02115AF
:1027D000310579F022303105F9F02330310509F067
:1027E000B8C0E7ECF4E0E4918E2F90E0E7ECF4E081
:1027F00007C0EDE0F5E0E4918E2F90E0EDE0F5E02C
:10280000009709F4A6C0A2CFE1EFF4E0E4918E2F87
:1028100090E0E1EFF4E0F4CFE5EEF4E0E4918E2F08
:1028200090E0E5EEF4E0ECCF8330910508F091C044
:10283000880F991FFC01E858FE4F0190F081E02DB0
:1028400089E090E083CF82E190E0E5EBF4E07ECF99
:1028500080912D05882309F45ACF853009F457CF8C
:102860008091E80083FD53CF8091E80082FD82CF04
:102870008091E80080FF78CF9091F3008091F20082
:102880002115310519F08830910550F041E0089785
:1028900009F040E08091E8008E778093E80064CFF3
:1028A00044914093F1003196215031090196E8CFCF
:1028B000803809F04EC08091E800877F8093E8005F
:1028C000809124058093F10092CE811142C0109135
:1028D00027051230F0F58091E800877F8093E800AB
:1028E000109324050E944A03112311F084E005C0CF
:1028F0008091E30087FDFACF81E080932D0542E0CF
:1029000061EC81E00E94690342E261EC84E00E9494
:10291000690342E261EC82E00E94690342E260ECFA
:1029200083E00E94690380912D0513C080912705E3
:10293000813079F481E0933009F080E080932305C1
:102940001092E9008091E800877F8093E8000E9460
:102950004A038091E80083FF0AC08091E800877FE6
:102960008093E8008091EB0080628093EB00AA9650
:102970000FB6F894DEBF0FBECDBFDF91CF911F9190
:102980000895882321F00E944D090C944D1008955C
:10299000882339F090913005982B909330050C9452
:1029A0004D100895882321F00E9454090C944D1075
:1029B0000895882321F00E945B090C944D1008951E
:1029C000882309F452C0823871F40E94C20481FF46
:1029D0004CC089E30E94B3090E944D1089E30E9414
:1029E00088090C944D10833859F40E94C20480FF6A
:1029F0003CC083E50E94B3090E944D1083E5EFCFF0
:102A0000843859F40E94C20482FF2FC087E40E94D8
:102A1000B3090E944D1087E4E2CF9CEF980F913AE2
:102A2000F0F290E2980F983050F4877091E001C076
:102A3000990F8A95EAF7892F0E945409D2CF9BE516
:102A4000980F933020F490E080E00C94AC0498E56B
:102A5000980F973120F490E080E00C949604803F2A
:102A600020F00E94DE050C94B7050895FF920F93A5
:102A70001F93CF93DF93F82E009114041091150447
:102A80000115110509F449C01092130410921204A3
:102A900010920F0410921004D8011696CD91DC917B
:102AA0009E013A9521153F4108F4D07ED1E0C11135
:102AB00001C0D0E0D8011996ED91FC911A9730979A
:102AC00031F01B966D917C9180E00995D823DD2330
:102AD00039F08CEF8C0F813A38F58C2F0E948809E1
:102AE000FF2099F0E0911404F0911504808584FD95
:102AF0000CC080911104882341F0808191819C0158
:102B000021503109253A3D45A8F00E944D10109200
:102B100015041092140410921104C801DF91CF9192
:102B20001F910F91FF9008950E944D108C2F0E94CD
:102B3000E014D6CF0E94CE04E8CFCF93DF93EC0110
:102B40000E94E014CE010E948B0A9E01205E310992
:102B50002830310510F0CD2B21F4DF91CF910C946A
:102B6000D214DF91CF910C94C114CF93C82F882336
:102B700009F4AAC08238C1F40E94C20481FDA4C035
:102B800089E30E94B3090E944D102FEF81EE94E07B
:102B9000215080409040E1F700C0000089E30E948E
:102BA0008809CF910C944D108338A1F40E94C2047F
:102BB00080FD8AC083E50E94B3090E944D102FEF6B
:102BC00081EE94E0215080409040E1F700C0000089
:102BD00083E5E5CF8438A1F40E94C20482FD74C06D
:102BE00087E40E94B3090E944D102FEF81EE94E01C
:102BF000215080409040E1F700C0000087E4CFCF33
:102C00008CEF8C0F813A88F580911B01882301F1AC
:102C10008091FA0487FF1CC0EC2FE695E695E695B7
:102C2000F0E0E058FE4F828190E04C2F477021E0A9
:102C300030E002C0220F331F4A95E2F7822393232C
:102C4000892B79F08C2F0E9488090E944D1009C0B1
:102C5000E2E8F1E08191C817A9F321E0E838F20732
:102C6000C9F78C2F0E94B3099CCF80E28C0F88306B
:102C700048F4C77081E001C0880FCA95EAF70E9446
:102C80005B098FCFEBE5EC0FE33040F4F0E0EC5D57
:102C9000FE4F808190E0CF910C94AC04E8E5EC0FFE
:102CA000E73150F4F0E0EE0FFF1FE95DFE4F808149
:102CB0009181CF910C949604C03F30F08C2F0E94EC
:102CC000F906CF910C94B705CF9108951F93CF9338
:102CD000DF93182FC0913604D0913704893321F047
:102CE000C0913404D0913504812F0E94B5152097EE
:102CF00031F4812FDF91CF911F910C94E0148FE973
:102D00009FE00197F1F700C000002197F0CF0F93EB
:102D10001F93CF93DF93C42FD22FFC01828188238E
:102D2000A1F040933C040E948A0490933B0480935A
:102D30003A04C77081E001C0880FCA95EAF7DF91B5
:102D4000CF911F910F910C94D91410913C0414133E
:102D500039C080913A0490913B040E946F04209105
:102D60002E0430912F048217930760F5C0E2CD0F37
:102D70001D17B9F080E2810F883040F4177081E0B0
:102D800001C0880F1A95EAF70E94D214C83048F49F
:102D900081E09D2F977001C0880F9A95EAF70E94F5
:102DA000D914802F0E946616C83098F4D77081E03D
:102DB00001C0880FDA95EAF7DF91CF911F910F914B
:102DC0000C94D214C77081E001C0880FCA95EAF74D
:102DD000F3CFDF91CF911F910F910895AF92BF92E2
:102DE000CF92DF92EF92FF920F931F93CF93DF93D7
:102DF000EC018AE0A82E2881222309F48CC021301E
:102E0000C9F599818A81913021F422960E94661633
:102E100005C0923029F422960E94B5152196EBCF79
:102E2000933021F422960E94E014F8CF943011F0F0
:102E30002196F4CF229630E020E0AE014F5F5F4F45
:102E40008053990B8A30910550F02150310930F3AD
:102E50008FE99FE00197F1F700C00000F6CFA29E36
:102E6000B001A39E700D11249C01260F371F89818C
:102E7000EA01E3CFE22FF0E0E650FE4FB490822F5C
:102E800086958695869590E0FC01E651FE4FE4908C
:102E90002770F12C022E02C0F594E7940A94E2F711
:102EA00031E0E322FF24FC01E652FE4FC490D12C16
:102EB000022E02C0D594C7940A94E2F731E0C322EF
:102EC000DD24FC01E653FE4F049110E002C015958D
:102ED00007952A95E2F701701127E114F10419F022
:102EE00081EE0E94B515C114D10419F086EE0E943E
:102EF000B5158B2D0E946616CD2819F086EE0E941E
:102F0000E014EF2819F081EE0E94E014012B09F47F
:102F100085CF8CE27BCFDF91CF911F910F91FF90F6
:102F2000EF90DF90CF90BF90AF900895CF93DF9355
:102F3000EC010E948B0A9E01205E31092830310588
:102F400010F0209739F40E94D9148C2FDF91CF9183
:102F50000C94B5150E94C814F8CF662329F020916F
:102F600030052260209330059C013056211540E247
:102F7000340720F0305E2115304108F499270C9475
:102F80009617DF92EF92FF920F931F93CF93DF93E9
:102F90007C018B01D42E8091190182FF8CC0C091DD
:102FA0005903D0915A03CE15DF0521F0E114F10445
:102FB00009F081C0809119018B7F8093190181FDF7
:102FC00073C08091570390915803A801481B590B77
:102FD00081E020911701309118014217530708F43E
:102FE00080E08170F82E80911901F0FA81F98093C8
:102FF0001901FE0183E0F695E7958A95E1F7EE71F8
:10300000FF27E95CFC4F20813181AE014F705527CD
:1030100081E090E002C0880F991F4A95E2F7FF20F7
:1030200009F444C0822B932B9183808380913603D3
:1030300081FF08C08091190180618093190182E0AD
:103040000E9454098091360385FF08C080911901C0
:1030500080628093190180E20E9454096F2DCE0195
:103060000E94AD17DD2031F08091310485FF02C050
:1030700086FF3BC080913404909135040E944F0B31
:103080008091590390915A039C013056211540E2DA
:10309000340720F0305E2115304108F499270E9452
:1030A0009D150E9426111DC081E09BCF80959095B3
:1030B00082239323B9CFC701992797013056211551
:1030C00040E2340728F0305E2115304108F0C70196
:1030D0000E949D158091590390915A038E159F056A
:1030E00001F31093580300935703DF91CF911F9181
:1030F0000F91FF90EF90DF90089569EE7EEF90E0E2
:1031000080E00E949D3460E082E090E00E947F3485
:1031100060E083E090E00E947F3410922E0560E032
:1031200084E090E00E947F3460E082E290E00E94C0
:103130007F3460E085E090E00E947F3460E086E0CC
:1031400090E00E947F346FEF87E090E00E947F3430
:1031500040E050E0BA0188E090E00E94913460E0E5
:103160008DE090E00E947F3440E050E0BA0188E1B9
:1031700090E00E94913460E087E190E00E947F340B
:1031800040E050E0BA018CE190E00E94913470E0A0
:1031900060E080E290E00E949D3440E050E0BA019F
:1031A00088E190E00E94913480E00E94690D0E94C5
:1031B000490E40E050E0BA018FE090E00E94913467
:1031C00040E050E0BA0183E190E00C9491342F92FA
:1031D0003F924F925F926F927F928F929F92AF92A7
:1031E000BF92CF92DF92EF92FF920F931F93CF93F4
:1031F000DF9300D000D000D00F92CDB7DEB77C01B6
:10320000DC0113964D915C91149711966C91119776
:103210008C910E943F058111CBC061E0C7010E94E3
:10322000640C8C01F7018281811161C0D701129673
:103230008C9181119BC00031FFE51F0709F473C118
:1032400001312FE5120709F472C16801E7E5DE1AC2
:10325000FFEFCF16D10409F060F56BE472E08C2D1E
:103260000E94580E892B29F586E18C9DF0018D9DD9
:10327000F00D1124E15CFB4F8681813009F059C1CA
:1032800080914B0290914C02892B99F080914D02D4
:1032900090914E02892B69F080914F0290915002DB
:1032A0002091510230915202822B932B892B09F4E9
:1032B0004AC1F7015280552009F457C10F35FDE589
:1032C0001F0709F44EC100362DE5120751F00E35E7
:1032D0003DE5130709F049C180910001882309F4F5
:1032E00040C11092000180E00E94361551C08091CB
:1032F0000D0190910E01019609F498CFEFE3CE2EC7
:10330000E4E0DE2EB12CA12C9924939480910D0140
:1033100090910E018A159B050CF488CFF6018681E9
:103320008823E9F0818592850817190739F480917F
:103330003D0490913E040817190789F0D6011F96A5
:103340009C921F971C961C930E931B97C6010E947C
:103350000511C60106960E94C01010923005BFEFFD
:10336000AB1ABB0AE6E1CE0ED11CD0CFC801825108
:103370009F45409710F00C9406228FEF93E00E9437
:1033800071347EEED72ED00E0BE911E08823A9F11F
:103390008091F801877061F0D70112968C91882393
:1033A00039F08091FB0482FD03C082E00E947A1113
:1033B00027960FB6F894DEBF0FBECDBFDF91CF9139
:1033C0001F910F91FF90EF90DF90CF90BF90AF9043
:1033D0009F908F907F906F905F904F903F902F9035
:1033E00008950115F4E01F0799F2C8010E94713495
:1033F000811101C0DA940F5F1F4FD110F2CF1982F3
:103400001A821B821C8299249A9468012FEFC21A97
:10341000D20AC8010E94713489831A82882309F470
:10342000B7CF813009F073C0580132E0A30EB11C50
:10343000C6010E947134C82E8A83882309F4A8CF5C
:10344000C5010E947134D82E8FEF8C0D833068F443
:10345000580143E0A40EB11CDB82DD2021F0CE0137
:1034600001960E94EE168501D0CF8BEF8C0D833034
:1034700030F5C8010396DB825C01DD20A1F3580121
:1034800054E0A50EB11C0E9471348C83882359F33B
:103490008B819C818130AFEF9A0710F0982F88279D
:1034A000B6E0CB1631F0E7E0CE1631F00E94112ADB
:1034B000DACF0E949029D7CF0E940A29D4CFF4E016
:1034C000CF12D1CF580124E0A20EB11CC80103963F
:1034D0000E947134DD2009F45BCF882309F458CFB2
:1034E0008150990B989E9001999E300D11244D2D7D
:1034F0004150550BCA01820F931F019708F4B3CFB7
:10350000AFE9BFE01197F1F700C00000F6CFCE01A0
:1035100001960E94EE165601A6CF81E00E94B311DB
:103520000E94631135CF81E00E946E11F9CF82E0D5
:10353000FBCF823009F0BDCE80914F0290915002B6
:10354000892B09F4B6CE26E12C9DC0012D9D900D4E
:103550001124815C9B4FDC0150961C920E94051146
:10356000A8CE81E08093000113CF809100018823D1
:1035700009F474C6480140EE841A910840901B0279
:103580008091F501482A80913603482A58E0851633
:10359000910408F086C098012770332781E090E0FD
:1035A00001C0880F2A95EAF7552009F477C0482A08
:1035B000D7018D919C910E94110A21E030E03901E0
:1035C00002C0660C771C8A95E2F7E0911404F09132
:1035D0001504FF83EE832090A0013090A1011D828D
:1035E0002D81E22FF0E0EE0FFF1FEA55FD4FC08066
:1035F000D180C114D10409F4F4C6411005C0D6012C
:1036000012968C91811187C0F601838190E086210A
:103610009721892B09F47FC08085982F977009F432
:1036200087E0F8E08F16910408F055C0552009F4A2
:103630004EC086958170882309F46DC0D601AD9087
:10364000BC900A151B0519F4552009F464C0EE81DD
:10365000FF81CE16DF0609F45EC0D6011D96ED91FE
:10366000FC91309721F08081882309F454C0642DA7
:10367000C6010E941F05882309F44DC00A151B05C9
:1036800009F001C70115110509F402C7511002C75D
:10369000A214B30409F03FC0512CFCC68095482207
:1036A00087CF552009F486C61093A1010093A0018D
:1036B0000E947E0460930B0470930C0480930D04AD
:1036C00090930E04109213041092120471CF82FB97
:1036D000882780F9B0CF5520F1F08170ACCF0E94DF
:1036E000E014F6C60497813A910548F48A2D0E94A9
:1036F000B309552009F4B2C50E944D1049CE0E946D
:103700004D108FE39CE90197F1F700C000008A2D6E
:103710000E94B515EECF9D819F5F9D8361CFFC0117
:10372000208131810217130709F091C5511091C50D
:103730001092110480E067C6882309F4DEC5FA01FF
:103740008189882309F4D9C5C5018B5B9B4F0E94F1
:10375000C010D3C580911901816080931901FBC508
:10376000809119018E7F809319010E942611F3C563
:10377000809119018F7E013E110531F0053E110542
:10378000C9F4809119018F7D8093190180911901ED
:1037900080FFF0C5D70112968C910832110528F5EB
:1037A0000E31110508F074C00430110580F5811147
:1037B000DDC5E0C5C8019056811540E2940720F0B0
:1037C000905E8115904110F78091190182FFD2C55A
:1037D0008091330481FDCEC524E232E040E0B601A1
:1037E00090E080E00E94C117C5C50933110558F467
:1037F0000D32110518F40B321105C9F69091310400
:1038000092FDD5CF08C004361105C1F3D0CF9091F9
:10381000310494FDCCCF882309F4A1C090913603E4
:1038200080911B02282F292B322F3D7FB1F110925E
:103830005A03109259033091310431FD2EC0F80122
:1038400043E0F695E7954A95E1F7EE71FF27E95CCD
:10385000FC4F98012F70332781E090E002C0880F61
:10386000991F2A95E2F780959095208131818223D6
:1038700093239183808360E0C8010E94AD178091FB
:103880001B028D7F0E94390982E00E947A1180CD4F
:103890009091310493FD8BCFBECF38E0F701A4E2C5
:1038A000B2E001900D923A95E1F710922602109243
:1038B000280210922702A0905903B0905A030A15CB
:1038C0001B05B1F53091310435FF32C0409119012B
:1038D00041FB992490F841FF02C036FF29C0409176
:1038E000570350915803B601641B750B40912E0489
:1038F00050912F0464177507D8F491FF08C0809188
:10390000190180618093190182E00E94540980911D
:10391000360385FF08C080911901806280931901E8
:1039200080E20E945409692DC5010E94AD1730CD77
:103930009091190121FB91F9909319018D7F0E94BB
:10394000390910935A0300935903D0925803C09237
:1039500057038091190184608093190195CF9701D5
:1039600040E0B601C8010E94C11712CD053F4CE5E9
:10397000140709F469C008F461C0063F8CE5180714
:1039800009F468C0D70112963C91332309F44BC562
:1039900010923C040330BDE51B0708F067C00A3FE6
:1039A000ECE51E0730F4C80182509C45449708F0AE
:1039B00067C00E948B0C9093FB048093FA04013142
:1039C0003CE5130709F46CC108F0E9C009305CE577
:1039D000150709F453C108F0B6C005309CE5190776
:1039E00009F444C108F09CC00330BCE51B0709F48E
:1039F00033C108F037C18091FA04816002301C4560
:103A000009F42DC16091FA041091FB0484E090E068
:103A10000E947F34612F82E290E00E947F340E94F6
:103A2000D811B6CC07E225EE45EE68ED7CE5BDC4C5
:103A300006E221EE40EE63EF7CE5B7C407E225EE37
:103A400044EE64EF7CE5B1C406E221EE42EE65EFA0
:103A50007CE5ABC407E225EE46EE66EF7CE5A5C447
:103A600008E221E045EE69ED7CE59FC40136FDE505
:103A70001F0709F49ECF053A2DE5120709F499CFE7
:103A800006318CE5180709F4D2C40A358DE518070C
:103A900009F45CC108F038C10115ACE51A0709F456
:103AA00045C10E3D1C4509F44EC1F7018681978141
:103AB000009709F44FC10E94A607182F092FF7019C
:103AC000D280C580C2943FE0C3228091F801877004
:103AD000C1F0AD2CDD20B1F0892F807F803421F042
:103AE00080E2810F883068F08091FB0482FD09C07C
:103AF00082E00E947A118091F8018770AA24A39431
:103B00008111A12C902E92942FE09222FBE0F915C6
:103B100008F4ADC1E92DF0E0E953FB4C0C942E34D0
:103B20008091FA04806207302CE5120709F497C0EF
:103B30008091FA04806108301C4508F490C080919F
:103B4000FA0480648CC08091FA048B7F0D304CE5C0
:103B5000140709F484C080F40B308CE5180709F4CD
:103B600093C08091FA048C600C301C4508F477C037
:103B70008091FA048D7F73C08091FA048F7E0F309C
:103B8000ACE51A0709F46BC08091FA04877F003115
:103B90001C4508F464C08091FA048F7D60C00D3F1D
:103BA000ECE51E0709F478C050F505312CE5120745
:103BB00009F480C098F48091FA04837F03314CE5C6
:103BC000140709F44CC008F46FC00E94D8119091FA
:103BD000FA04892F97FB87F9805841C00B3F8CE589
:103BE000180709F447C008F053C08091FB048160B6
:103BF0000A3F1C4509F006CF8093FB0403CF013038
:103C0000BDE51B0709F462C0B8F48091FB048C7F0A
:103C10000F3FFCE51F0781F38091FB0483600115D2
:103C20001D4550F38091FB04982F909591708E7FE5
:103C3000892B90FB81F9E0CF01363DE5130709F4AC
:103C40004BC0053A4DE5140709F44DC002301D453F
:103C500009F0D8CE60E03BC08091FA048260809386
:103C6000FA04D0CE8091FA048460F9CF8091FA04EE
:103C70008860F5CF8091FB048260BECF0E94D8118E
:103C80008091FA048068EBCF8091FA048E7FE7CFB1
:103C90008091FB048E7FB0CF8091FB048D7FACCFF1
:103CA0008091FA048F7BDBCF0E94D8118091FA04B7
:103CB0008F77D5CF8091FA0482FB992790F921E084
:103CC000922790FB82F990FB83F9C9CF61E08EE0E7
:103CD00090E00E947F3496CE9091FA04892F8F7ED7
:103CE00094FF8061BCCF9091FA04892F8E7F90FF62
:103CF0008160B5CF8091A201811104C089E20E9448
:103D00008809FACC85E3FBCF0B35EDE51E0701F101
:103D10000C351D4509F0C9CE8091FB0482FB882734
:103D200080F991E089270E949611BFCE0E94D81198
:103D30002FEF34E34CE0215030404040E1F700C029
:103D400000000E945E040E947D1822CB81E0EBCF30
:103D500080E0E9CF828100811181882369F0C80168
:103D60000E94F20BD82E682FC8010E943F0AB801AA
:103D70008D2D0E94D60B9FCEC8010E94110AD82E0D
:103D8000F6CF202F2F70B22E802F807F19F0B294A3
:103D900090EFB922DD20A9F0BB2059F080E2810F1D
:103DA000883010F0111107C08B2D0E945B090E9412
:103DB0004D10812F5AC080913005B82AB09230053D
:103DC000F6CF812F0E94E014BB2009F450C080E29E
:103DD000810F883010F0111104C08B2D0E945409FE
:103DE00003C08B2D0E944D090E944D1040C0302F02
:103DF0003F70B32E802F807F803219F0B29480EF15
:103E0000B822112321F1113009F4A4C0DD2009F4F6
:103E1000ADC0CC2009F47DC020E0D7014C911196B3
:103E20005C91119712966C91129713967C9113974F
:103E300014968C910E943B0C8091330481FDB9CF84
:103E4000F701858180FFB5CF8F70858362C0809137
:103E5000FB0482FF40C0DD20C1F1BB2029F08B2D87
:103E60000E945B090E944D1080E00E94B515A92DAB
:103E7000A850BB0B149710F40E94C204812F902FFE
:103E80000E94700A8111C4C11092A4011092A30172
:103E9000AA20B1F08091F80180FD12C0D7011296DE
:103EA0001C928595859585950E94B311C7010E9446
:103EB000E7188091F8018595859585950E946E118A
:103EC00060E0C7010E94640C73CA80E00E94E014A5
:103ED000BB2069F282CFDD2001F1C11004C08091C6
:103EE0001B028B2917C041E0C41206C080911B023F
:103EF0008B290E943909BBCF80913204823078F33C
:103F0000C812EDCF0E942E098091F501B812B0922F
:103F1000F5018B2D0E94D914AACFC11006C00E94B2
:103F20002E098B2D0E94D214A2CF8091320451E031
:103F3000C5120BC0823008F49ACF809136038B21D2
:103F400009F495CF0E948209EACF823040F3C8126B
:103F5000E6CF8DCF80913804DD2021F08C1508F458
:103F600086CFD7CFC81608F082CFDBCFCC20C9F2DE
:103F70008091360490913704193321F080913404F4
:103F8000909135040E944F0B812F0E94E0146FCF57
:103F9000802F86958695837069F0813009F067CF10
:103FA000812F902F9370D11002C090E080E00E948A
:103FB00096045DCF812F902F9370D11002C090E0B6
:103FC00080E00E94AC0453CF812FDD2029F00E94B5
:103FD000F9060E94B7054BCF0E94DE05FACF802F6D
:103FE000837091F5D11043CF412F4295469547708C
:103FF000440F440F812F8F70042E01C0880F0A9444
:10400000EAF7212F207114FF07C02FE030E001C034
:10401000220F4A95EAF72095302F36953695337062
:10402000323069F050F440912E05313029F0822B66
:1040300084230E94D4111BCF842B822BFACF282BF0
:1040400080912E058227F5CF8695DD2011F0802FF7
:104050008170882309F40BCF412F42954695477014
:10406000440F440F812F8F70042E01C0880F0A94D3
:10407000EAF7212F207114FF07C02FE030E001C0C4
:10408000220F4A95EAF72095302F369536953370F2
:10409000323069F050F440912F05313029F0822BF5
:1040A00084230E945F11E3CE842B822BFACF282B2E
:1040B00080912F058227F5CFF02FFF70BF2EDD20D6
:1040C00029F08F2F0E94B311812F24CF812F0E94BE
:1040D000D2148B2D0E946E11CACE123F89F160F46A
:1040E000103FB9F0113F81F0DD2009F48CC0C11000
:1040F00060CE802F8F7128C0133F49F1143FA1F784
:104100008091FB0482FF2FC0802F8F71DD2011F37F
:104110001BC080913804DD2079F0C81608F0A7CEC6
:10412000202F2F7181E090E001C0880F2A95EAF7D7
:1041300090912F058927B5CF8C1508F498CEF0CF34
:10414000802F8F71D110C6CF0E94B31190CE80E026
:10415000DD2009F4A6CF81E0902F9F7101C0880F68
:104160009A95EAF79ECF809132048230A0F1809137
:10417000F501DD20F1F00E9454098091F80187706B
:10418000843041F40E946109802F8F710E946E116A
:10419000A12C6DCE80913204C816D0F7202F2F713C
:1041A000B22E822F0E94B31163E08B2D0E94BE11AC
:1041B000EFCF0E945B0980913204C81640F00E9444
:1041C00061090E94820964E0802F8F71EFCF81E046
:1041D0000E947A11DDCFDD2059F0302F3F71B32ED0
:1041E000832F0E94B31163E08B2D0E94BE113FCE3E
:1041F00081E00E947A1141E04C1508F038CE82E04F
:104200000E947A1134CEC110B3CE802F8F7162CF4D
:10421000DD2019F0C11038CE3BCEC11035CE20E0E4
:10422000F701408151816281738184810E943B0C3E
:104230008091330483FF28CE8091A3019091A40143
:10424000029709F021CE812F0E9466161DCE5520BF
:1042500029F0DC0118968C9185FF6CCAC80197552E
:104260008F3F910511F008F048C020910D01309169
:104270000E012817390724F490930E0180930D0145
:10428000F701228136E1389F5001399FB00C11248B
:10429000A501415C5B4F6A01DA0150962C9350975F
:1042A000928116968C911697992309F445CA1A960D
:1042B0001C930E9319978F5F16968C930E948A0415
:1042C000F6019687858780911B0287838091300550
:1042D00090913603892B80870190F081E02D3097F3
:1042E00041F0D60154966D917C91C5018B5B9B4F3B
:1042F000099510933E0400933D048091310480FFA2
:1043000039C00E948A046C01D70112968C918823CF
:1043100009F42ECA8091190182FF08C024E232E01C
:1043200040E0B60190E080E00E94C1170B31BCE58F
:104330001B0709F40FCA0C31ECE51E0709F410CA7B
:1043400090911901892F8E7F90FF81600A31FCE5E1
:104350001F0709F408CAC8019056811520E2920788
:1043600028F0905E8115904108F010CA10925A030F
:1043700010925903033FBCE51B0709F459CB08F021
:10438000F5CA083DFCE51F0709F44CCB093D2CE5B7
:10439000120709F465CB073D3CE5130709F0F2CAA3
:1043A00006E221EE41EE67ED7CE5C7010E9487162B
:1043B0000C94C8198091A0019091A10108171907C8
:1043C00081F41092A1011092A00110920B0410929E
:1043D0000C0410920D0410920E041092130410920B
:1043E00012048091140490911504009709F436CFBB
:1043F000A8E08A16910408F092C9642D0E941F0556
:1044000081112CCF81E00E94361528CF00313FE585
:10441000130709F482C801314FE5140711F00C9419
:10442000591982E07BC806311C4509F03ECB8091CA
:104430003603982F9A7A2091300420FF04C0482F29
:10444000447409F090E021FF04C0482F417109F045
:1044500090E022FF04C0482F487809F090E023FF45
:1044600003C0827209F090E0332309F443CC81E069
:10447000911101C080E08093A20189E2911185E34E
:104480000E94B30939C9A114B10409F001C9512C22
:10449000B12CA12C80E00E943615D0921504C09258
:1044A000140481E080931104F601858180930F0448
:1044B00051100EC0AB2861F0F601808191819C0102
:1044C00024503109213A310508F009C90E948809B0
:1044D000D6011696AD90BC90C5019A9581159F4165
:1044E00010F4E0EEBE2277247394C5010197853A5B
:1044F0009D4508F0712CD6011996ED91FC911A9703
:10450000309731F01B966D917C9181E0099578226E
:10451000772079F0F601868197810E948B0A80933B
:104520001004C501F8E08F16910408F0DBC80E9462
:10453000CE040E944D10DDC8CF92DF92EF92FF9221
:104540000F931F93CF93DF938091B001807F31F45D
:104550008091AD01C091F40181110BC0DF91CF9129
:104560001F910F91FF90EF90DF90CF9008952196CB
:10457000C7708091B3018C1789F3F090AB01E09084
:10458000AC01C090AE01D090AF01A6016E2D8F2D71
:104590000E943F05D0E08111EACF8E0183E0000F39
:1045A000111F8A95E1F7F801EC54FE4F81818E11BD
:1045B000DECF80818F11DBCF82818111D8CFE38064
:1045C000F480EC18FD0860E08BEA91E00E94640C36
:1045D00080912E0490912F04E816F90640F6809100
:1045E000B0018F7080618093B001F801E754FE4FF5
:1045F00080818F70806180838BEA91E00E94E71850
:10460000DF91CF911F910F91FF90EF90DF90CF90AE
:104610000C94070A3F924F925F926F927F928F9213
:104620009F92AF92BF92CF92DF92EF92FF920F9341
:104630001F93CF93DF93CDB7DEB765970FB6F8948E
:10464000DEBF0FBECDBF8C0185E0F801DE015196C3
:1046500001900D928A95E1F7D8014C9011965C90EB
:1046600011971296EC9012971396CD90DC9060E023
:104670008BEA91E00E94640C8BEAA82E81E0B82EB0
:104680008090AE019090AF01A4016091AC01809147
:10469000AB010E943F058111CAC1F090AD01F60146
:1046A000E819F9094F0160E0FF2009F46DC1C50167
:1046B0000E94640C60902E0470902F043090B00122
:1046C0008614970408F013C14091AE015091AF01D8
:1046D000B090AB01A090AC01832D807F6A2D09F0D2
:1046E000ADC08B2D0E943F05FE2C81113BC0D8012F
:1046F00011968C9111978A1135C08C918B1132C013
:104700002091B1013091B20116968D919C9128179C
:10471000390741F5E11026C0832D8F7080618093A9
:10472000B0018BEA91E00E94E7188091B001F80196
:1047300085838F2D65960FB6F894DEBF0FBECDBF73
:10474000DF91CF911F910F91FF90EF90DF90CF906D
:10475000BF90AF909F908F907F906F905F904F90A1
:104760003F900895F4EF6F16F1E07F0620F48091FA
:10477000330480FF21C0A601652D842D0E943F05D2
:10478000811118C081E08E2580FF16C04E2D652D49
:10479000842D0E94E709882379F08BEA91E00E943A
:1047A000E71888E0EBEAF1E0DF011D928A95E9F76E
:1047B000F12CBFCF80E0E8CFA601652D842D0E94AB
:1047C0003F05811124C081E08E25B82FB170CB2E1A
:1047D00080FF2BC04E2D652D842D0E94E709D82E19
:1047E000811123C0498A5A8A89899A890E94210C99
:1047F000292F22952F70223060F0243088F49F708A
:1048000061F0F8019581907F41F4FD2C92CF80E01A
:10481000DCCF9F7011F08823C1F3805E8830A8F34D
:10482000C8010E94E718DC2CF0CFEE2009F481CFFC
:104830008091B00181608093B001BACF8B2D0E942E
:104840003F05811124C0D80111968C9111978A11CE
:104850001EC08C918B111BC02091B1013091B2010F
:1048600016968D919C9117972817390781F4E110BE
:104870000EC015963C92C8010E94E71888E0F80126
:10488000ABEAB1E001900D928A95E1F752CFC801F1
:104890000E942D0C882339F1EE2029F18091B0017E
:1048A0008032A0F02091AB013091AC013A8729878A
:1048B0001B86DD86CC868E878091B1019091B201F6
:1048C000988B8F87CE0109960E94E71888E0F8013F
:1048D000ABEAB1E001900D928A95E1F70E949C222B
:1048E000FF24F39426CFC8010E94E718F9CF832D47
:1048F000807F09F452CF9090AB018090AC01409141
:10490000AE015091AF01682D892D0E943F058111A4
:104910001CC0F8018181881118C08081891115C0DF
:104920002091B1013091B201868197812817390712
:1049300061F4E1100AC03582C8010E94E71888E0DE
:10494000D5011D928A95E9F7F4CEC8010E942D0C7D
:10495000882349F2EE2039F28091B001803208F4C8
:10496000B5CF2091AB013091AC013A8329831B82F2
:10497000DD82CC828E838091B1019091B2019887C3
:104980008F83CE010196A0CF8BEA91E00E94640C48
:1049900080912E0490912F048816990680F6FE2CA3
:1049A000EE2009F4A0CFE090AB01D090AC01409193
:1049B000AE015091AF016D2D8E2D0E943F058111EA
:1049C00028C0F80181818D1124C080818E1121C001
:1049D0002091B1013091B201868197812817390762
:1049E000C1F48091330482FD49CF9091B00190FDD4
:1049F00045CF907F09F442CF8091B0018583903FED
:104A000009F439CF982F907F905F8F70892B858321
:104A100032CFC8010E942D0C811158CF8091B00176
:104A200081608093B001C8010E94E71882CEEE2019
:104A300009F459CFC8010E942D0CF82E882309F4DF
:104A400052CF88E0F801ABEAB1E001900D928A956F
:104A5000E1F78091AB019091AC010E94210C0E9482
:104A60009C2267CECF93DF93CDB7DEB760970FB6AA
:104A7000F894DEBF0FBECDBF29873A874B875C878E
:104A80006D877E878F87988BCE0109960E940A23B7
:104A900081112FC088E0FE013996DE011196019048
:104AA0000D928A95E1F74C855D856A8589850E941E
:104AB0003F0581111EC0A091B301B0E0CD01019668
:104AC000877099272091F4012817190609F193E0BE
:104AD000AA0FBB1F9A95E1F7AC54BE4F98E0FE01B8
:104AE000319601900D929A95E1F78093B3010E945F
:104AF000070A8091F4019091B301891317C0609661
:104B00000FB6F894DEBF0FBECDBFDF91CF910895F1
:104B10000E94D8111092B3011092F40188E0EBEAE0
:104B2000F1E0DF011D928A95E9F7E3CFB8E08B9FB2
:104B3000C00111248C549E4F0E940A238823F9F24D
:104B40008091F40190E00196877099278093F40199
:104B5000D0CFEF92FF920F931F93CF93DF9380916B
:104B60005E03882361F0C0915D038CE0F82E809194
:104B70005E03C81758F010925E0310925D03DF9138
:104B8000CF911F910F91FF90EF900895EE24E39441
:104B9000EC0EE0925D030C2F10E0CF9DE00111249C
:104BA000C15ADC4F4B815C81698188810E943F053D
:104BB00081111DC08E819F81892B21F48885998563
:104BC000019651F4288139814A815B816C817D8114
:104BD0008E819F810E943225F09EF001F19EF00DA2
:104BE0001124E15AFC4F1482138210923005CE2D0D
:104BF000BECF109202041092010410921A0180910B
:104C000000048093FF030E9478050C94A9253F922D
:104C10004F925F926F927F928F929F92AF92BF92CC
:104C2000CF92DF92EF92FF920F931F93CF93DF9378
:104C3000C091FF0397E0892E01E010E02CE0322EB6
:104C40003EEF932E44244394809100048C1315C0AE
:104C50000E94A925DF91CF911F910F91FF90EF90B6
:104C6000DF90CF90BF90AF909F908F907F906F908C
:104C70005F904F903F900C947805D0E0FE01EE0FCE
:104C8000FF1FE950FC4F80819181889ED001899E51
:104C9000B00D1124A154BC4F14962C9114972111DE
:104CA00057C050905E03EFE5F3E030E020E0712C58
:104CB0005D01251508F04AC0E284F384D501CD904A
:104CC000DC906FEF7FEF612C462D50E0DA01AA0FE8
:104CD000BB1FAC0DBD1D0D90BC91A02D109731F0E8
:104CE000EA16FB0609F4BA016394EECF6F3F76072C
:104CF000A1F1D80102C0AA0FBB1F6A95E2F77A2A78
:104D0000B80102C0660F771F6A94E2F7AB01415009
:104D1000510974161506F9F4329EF001339EF00D18
:104D20001124E15AFC4F889ED001899EB00D1124B8
:104D3000A154BC4F12962D913C9113973783268333
:104D4000908291829187808715964C920E944A05A5
:104D50002196C37079CF148213822F5F3F4F3C9608
:104D6000A8CF2F923F924F925F926F927F928F9235
:104D70009F92AF92BF92CF92DF92EF92FF920F93EA
:104D80001F93CF93DF93CDB7DEB769970FB6F89433
:104D9000DEBF0FBECDBF942F498B252F5A8B6B8B57
:104DA0007C8B8D8B4C895D89622F892F0E943F05FA
:104DB000811109C08091A3019091A4010196909363
:104DC000A4018093A3018B898111109230051D8667
:104DD0001E861F86188A85E0FE017196DE011996EF
:104DE00001900D928A95E1F78091FB0482FD1EC02F
:104DF0008091180490911904892BC1F00E948A04B3
:104E00002091F6013091F701821B930B2091180439
:104E1000309119048217930720F08091F80182FFE6
:104E2000F5C10E94680981110E942E094C855D859B
:104E30006A8589850E943F05811111C061E0CE011C
:104E400009960E94640C6C018B8527EFC2162CE535
:104E5000D20681F4882321F181E080931A0129850B
:104E60003A854B855C856D857E858F8598890E9406
:104E70003225C5C038EFC3163CE5D30629F4882394
:104E800079F00E94F925EBCF49EFC4164CE5D40622
:104E900039F4882329F080911A018111F2CFDCCFF7
:104EA0000FEB13E0512CB12CA12C22242394312C94
:104EB0002EEF422EF8014081518188248A94982C4B
:104EC00020E0822F90E0FC01EE0FFF1FE40FF51FA2
:104ED000608171816115710531F0C616D70609F43C
:104EE0004C012F5FEECFF12CFFEF8F169F0609F4D8
:104EF00048C0F8014481F0901A018F2D411180E0E3
:104F0000F82FF170FF2EF801E58086819B859923AB
:104F100009F40CC1FF2009F409C160902C047090C1
:104F20002D04E11012C0A10101C0440F8A94EAF7D8
:104F3000842B868380915B0390915C038615970593
:104F400020F470925C0360925B03C10102C0880F81
:104F5000991F2A95E2F70197F8012681281719066B
:104F600081F48091010490910204009709F460C0DB
:104F70000E946F046816790608F05AC021E0F80113
:104F800024835F28FFEFAF1ABF0A095F1F4F28E095
:104F9000A216B10409F08ECF8B85882309F421C1B4
:104FA000552009F41EC10E948A0490930204809344
:104FB000010480915E03883010F591E0980F909382
:104FC0005E0398E0FE013996DE01119601900D9284
:104FD0009A95E1F73CE0839FC0011124815A9C4FD0
:104FE00028E0FE013196DC0101900D922A95E1F74F
:104FF0002FEF3FEFFC0131872087D386C286699669
:105000000FB6F894DEBF0FBECDBFDF91CF911F91D9
:105010000F91FF90EF90DF90CF90BF90AF909F9057
:105020008F907F906F905F904F903F902F9008955A
:105030008091FF0350910004982FF0E0E0E0851389
:1050400014C09093FF03E017F10709F49ACF90E0A2
:10505000FC01EE0FFF1FE950FC4FB182A0820196C8
:1050600083709927809300048CCF682E712CF301F4
:10507000EE0FFF1FE950FC4F2081318147E0429F36
:10508000D001439FB00D1124A154BC4F6D917C9170
:105090001197798F688F40E020E030E0E32FF0E057
:1050A000EE0FFF1F688D798DE60FF71F80809180CE
:1050B00081149104E1F0F8010190F081E02DFF8B63
:1050C000EE8B20E005C08616970609F44F2D2F5F62
:1050D000E22FF0E0EE0FFF1F6E897F89E60FF71FCA
:1050E000608171816115710571F73F5FD7CF4423EE
:1050F000D1F0F801231708F0FD0121E024830E17F9
:105100001F0721F49093FF03F42E3BCF981305C0A3
:10511000AE17BF0711F49F5F937093012F5F3F4F4E
:10512000822F83708CCFF0E0E0E0F7CF90E0E110C9
:105130001FC0B10102C0660F771F2A95E2F79B01DD
:10514000215031098217930731F4442309F447C0F1
:10515000C5010E944A05C10101C0880F8A94EAF77F
:10516000982F9095F801868189238683FE2C09CF9C
:105170009C01082C02C0359527950A94E2F7A901F5
:1051800041705527BC016150710986239723892BF3
:1051900011F5452B01F1F80182819381892BC1F032
:1051A0001B821C821D821E8249824A820E948A04BE
:1051B0008160582F9D838C83F801828193818F8336
:1051C000988729813A814B816D817E810E943225A9
:1051D000F8011582C0CFF22FF170EF2EBCCFEF2C6B
:1051E000BACF9091FF0380910004981731F00E948C
:1051F0000726552009F433CE02CF0E94A92510922C
:105200000204109201040E947805F3CF82E00E940C
:105210007A1107CECF93DF9300D000D00F92CDB795
:10522000DEB79093330380933203811520E2920717
:1052300048F40F900F900F900F900F90DF91CF9147
:105240000C949D158EEF89838A831B820E948A04A9
:105250008160782F9D838C8349815A816B818D81F8
:105260000F900F900F900F900F90DF91CF910C94B3
:10527000B1260F931F93CF93DF938C01EB016BE467
:1052800072E08C2F0E94580E892BA1F48091340477
:10529000909135040E944F0BDD27CD5BDD4F888157
:1052A000F80110821882833009F148F4813059F0F6
:1052B000823081F0DF91CF911F910F91089584305A
:1052C000D1F08530B9F780914B0290914C02009754
:1052D00089F306C080914D0290914E02009799F398
:1052E000DF91CF911F910F910C940A2980914F0269
:1052F00090915002F3CF8091510290915202009709
:1053000079F720914B0230914C0280914D0290919F
:105310004E0221153105D9F2009711F7C901E0CFEE
:10532000CF93DF9300D000D00F92CDB7DEB790932C
:10533000330380933203811520E2920748F40F90E3
:105340000F900F900F900F90DF91CF910C949617C4
:105350008EEF89838A8381E08B830E948A04816037
:10536000782F9D838C8349815A816B818D810F9029
:105370000F900F900F900F90DF91CF910C94B1266A
:10538000BF92CF92DF92EF92FF920F931F93CF9332
:10539000DF93B82EC0902F0580912E05C82AC7E054
:1053A000D0E0D12CF12CE12CD701C6010C2E04C089
:1053B000B695A795979587950A94D2F780FF1FC059
:1053C0004B2D60E08C2F0E947E0B8C01813091056B
:1053D000B1F00E9490298FE39CE90197F1F700C09A
:1053E0000000C8010E940A2981E0DF91CF911F913E
:1053F0000F91FF90EF90DF90CF90BF90089521978D
:1054000098F64B2D60E080E00E947E0BEC010E943C
:1054100090298FE39CE90197F1F700C00000CE01CD
:10542000E1CFCF93DF93EC010E9490298091340467
:10543000909135040E944F0BCE01DF91CF910C94D7
:105440000A290F931F93CF93DF938C01862F6BE470
:1054500072E00E94580E892BC9F4C0914B02D09182
:105460004C02209799F0F8018081833069F4CE01D5
:105470000E94112ACE010E94112ACE01DF91CF9104
:105480001F910F910C94112A8430B8F7DF91CF91BE
:105490001F910F9108950F931F93CF93DF938C016A
:1054A000EB016BE472E08C2F0E94580E892B09F0FF
:1054B00064C0FE01FF27D8018C91ED5BFD4F813068
:1054C000D9F419969C911997992311F080830CC0F7
:1054D0001A969C919923D1F382E0808380914D02AA
:1054E00090914E020097D9F480914B0290914C021A
:1054F000009709F442C013C08230E9F519968C91E7
:10550000199781112DC01A968C9181110EC083E0DC
:10551000808380914F0290915002009719F1DF91A2
:10552000CF911F910F910C94902984E080838091FA
:10553000510290915202009791F780914B02909105
:105540004C020097F9F00E94112A80914D0290912F
:105550004E02009721F780914B0290914C02DFCFD1
:1055600085E0808380914B0290914C02009729F056
:105570000E94112AF0CF86E08083DF91CF911F91A6
:105580000F91089580914D0290914E02B1CF1F92DC
:105590000F920FB60F9211242F933F934F935F9367
:1055A0006F937F938F939F93AF93BF93CF93DF932B
:1055B000EF93FF93D091E900DF708091EC00C82F4A
:1055C000C17080FDC0E81092E9008091F000877FF3
:1055D0008093F00078940E94ED111092E900809180
:1055E000F00088608093F000CD2BCF70C093E9006D
:1055F000FF91EF91DF91CF91BF91AF919F918F91EB
:105600007F916F915F914F913F912F910F900FBEBE
:105610000F901F9018951F920F920FB60F921124A2
:105620002F933F934F935F936F937F938F939F93AA
:10563000AF93BF93EF93FF938091E10082FF09C086
:105640008091E20082FF05C08091E1008B7F809312
:10565000E1008091DA0080FF24C08091D80080FFB3
:1056600020C08091DA008E7F8093DA008091D9008B
:1056700080FF9DC080E189BD82E189BD09B400FE43
:10568000FDCF81E080932D058091FF04811109C039
:105690000E94A8020E949B038091E2008460809394
:1056A000E2008091E10080FF17C08091E20080FF5E
:1056B00013C08091E2008E7F8093E2008091E2002F
:1056C00080618093E2008091D80080628093D8004E
:1056D00019BC85E080932D058091E10084FF2BC0EB
:1056E0008091E20084FF27C080E189BD82E189BD0D
:1056F00089B5982F917080FFFBCF8091D8008F7D66
:105700008093D8008091E1008F7E8093E1008091AA
:10571000E2008F7E8093E2008091E20081608093BE
:10572000E20080912405882309F447C084E0809337
:105730002D0580912D058091E10083FF27C0809188
:10574000E20083FF23C08091E100877F8093E10026
:1057500082E080932D05109224058091E1008E7FD8
:105760008093E1008091E2008E7F8093E20080913F
:10577000E20080618093E20042E060E080E00E940D
:1057800069038091F00088608093F000FF91EF91B1
:10579000BF91AF919F918F917F916F915F914F9149
:1057A0003F912F910F900FBE0F901F90189519BC2D
:1057B00010922D051092FF0474CF8091E30087FDB5
:1057C00093E090932D05B5CF78941F921FB61F924A
:1057D00011248F939F93AF93BF938091F604909180
:1057E000F704A091F804B091F9040196A11DB11D30
:1057F0008093F6049093F704A093F804B093F9040F
:10580000BF91AF919F918F911F901FBE1F901895D0
:105810001F921FB61F9211248F939F93AF93BF9334
:105820008091F504811113C08091F6049091F704E2
:10583000A091F804B091F9044196A11DB11D809387
:10584000F6049093F704A093F804B093F904BF9181
:10585000AF919F918F911F901FBE1F901895CDB74C
:10586000DEB7EA970FB6F894DEBF0FBECDBF84B7A0
:10587000877F84BF0FB6F894A895809160008861F7
:1058800080936000109260000FBE80E890E00FB639
:10589000F89480936100909361000FBE85B7806893
:1058A00085BF85B7806885BF81E697E090937F01CB
:1058B00080937E010E946C0E0E946B0F0E94C20EAC
:1058C0000E94590B0E94A8020E949B038091E20053
:1058D00084608093E200789480912D058823A1F064
:1058E0001091E9001F709091EC00892F817090FD5C
:1058F00080E8182B1092E9008091E80083FD0E9457
:10590000ED111F701093E90082E084BD93E095BD16
:105910009AEF97BD80936E000E94720C811102C0B5
:105920000E94490E25E531E06FE571E001E010E0ED
:10593000D90150E040E08D918F3F91F0E82FE29542
:10594000EF70F0E0D1A08F70780101C0EE0C8A9565
:10595000EAF79E2D90959D2191A382A18E2982A385
:105960004F5F5F4F4530510531F72B5F3F4F621757
:105970007307F1F610923502109234021092200251
:1059800010921F0290E080E00E947934893E9E4F81
:1059900021F40E94720C811102C00E947D1882E0E5
:1059A00090E00E947134809321020E948B0C9093AE
:1059B000FB048093FA040E94C40F8FE39CE90197D3
:1059C000F1F700C000000E94C40F8091340280FFF4
:1059D00008C06FEF7FEF90E080E00E949D340E944E
:1059E0005E0483E090E00E9471340E94D411859897
:1059F0008D9A86988E9AEFE8F1E03197F1F700C022
:105A000000008FB185FB882780F97E99BCC190E0AA
:105A1000892B80932E0281E091E09093F204809391
:105A2000F10466246394712C8E010F5F1F4F9E0159
:105A30002D5F3F4F3EAB2DAB80912D05E0E1FE2E5B
:105A4000F2E1EF2E853009F4E9C10E94C40F811103
:105A50000E947E049091340280912202891769F09D
:105A6000282F292780E0DD24D3943D2D322309F00F
:105A7000DFC18F5FDD0C8530C1F7909135028091D9
:105A80002302891709F4DDC1282F292780E0DD24AE
:105A9000D3943D2D322309F4CFC1EE24E394F12CAD
:105AA00021E08BA72CA79D2181E009F480E08DA740
:105AB0000E948A048160782F9FA78EA74BA55CA5C2
:105AC0006DA58FA50E94B126F701EE5DFD4F808187
:105AD000D826D0828091120490911304892B09F466
